:1000000000308A0019280000213084008313000882
:10001000031918280130F800F701F70B0D28F80B29
:100020000C284A30F700F70B13281628800B0A28F3
:10003000080083161F149F141F159F1107309C0082
:1000400083131F3083050912831294120130940028
:1000500000308316940083129001F8009200003063
:100060008316920083121F10F03097059D05003013
:1000700083168700831287010714FA30A100042039
:0C0080000710FA30A10004203C286300A7
:02400E003A3F37
:00000001FF
;PIC16F877A
;CRC=2FCF  CREATED="23-Oct-20 14:27"
